:100000000C94A8000C94D0000C94D0000C94D00058
:100010000C94D0000C94D0000C94D0000C94D00020
:100020000C94D0000C94D0000C94D0000C945E077B
:100030000C94D0000C94D0000C94D0000C94D00000
:100040000C94A71D0C94D0000C940B210C943D2112
:100050000C94D0000C94D0000C94D0000C94D000E0
:100060000C947A1C0C94D000036EDB363D9A99995F
:10007000993DABAAAA2A3E000000803F084AD73B20
:100080003BCE016E84BCBFFDC12F3D6C74319ABD67
:1000900056833DDA3D00C77F11BED9E4BB4C3E918B
:1000A0006BAAAABE000000803F072C7AA5BA6CC5D7
:1000B00090DA3B9365FC8BBC53F810FD3C56928361
:1000C0004DBD879D3AB63DCBC9BF5BBE73DA0FC944
:1000D0003F05A84CCDB2D44EB93836A9020C50B960
:1000E000918688083CA6AAAA2ABE000000803F008C
:1000F00000000008000201000003040700000000E7
:1001000000000000010204081020408001020408E1
:100110001020010204081020040404040404040450
:1001200002020202020203030303030300000000B1
:1001300023002600290000000000250028002B00D5
:1001400000000000240027002A00B21B4D1C6D2176
:1001500011241FBECFEFD8E0DEBFCDBF11E0A0E07D
:10016000B1E0EAE4FCE402C005900D92A632B107CA
:10017000D9F723E0A6E2B1E001C01D92A232B20796
:10018000E1F711E0C0E5D1E004C02297FE010E9432
:10019000FA25CA34D107C9F70E9420220C942326DD
:1001A0000C940000DC01ED91FC910190F081E02DB8
:1001B0000994EF92FF920F931F93CF93DF931F92B7
:1001C000CDB7DEB77C01FC0100811181C8016983D4
:1001D0000E940D266981681719F0C8010E94152632
:1001E000C7010F90DF91CF911F910F91FF90EF907A
:1001F000089526E040E051EE60E070E085E892E08E
:100200000E94A9208FE891E00C94CC0DCF93DF934E
:10021000EC01BC016F77772785E892E00E94D2005D
:10022000BE01660F672F661F770B6F77772785E80C
:1002300092E0DF91CF910C94D2004F925F926F9237
:100240007F928F929F92AF92BF92CF92DF92EF9266
:10025000FF92CF934B015C010E9451236B017C0103
:10026000882777FD8095982F0E9484239B01AC01FD
:10027000C501B4010E943E2220E030E048EC52E487
:100280000E94C9242B013C0120E030E0A9010E941A
:10029000BE2420E030E040E05FE387FD05C0C301FD
:1002A000B2010E943F2204C0C301B2010E943E225B
:1002B0000E945123762E672EC1E020E030E0A90194
:1002C000C501B4010E94BE2418160CF0C0E061E024
:1002D0006C2770E085E892E00E94D2005601D7FEBC
:1002E00004C0AA24BB24AC18BD08B5016F777727DA
:1002F00085E892E00E94D200B501660F672F661F65
:10030000770B6F77772785E892E00E94D200672D00
:10031000762D77FF03C07195619571096F77772707
:1003200085E892E0CF91FF90EF90DF90CF90BF9063
:10033000AF909F908F907F906F905F904F900C94B4
:10034000D2008F929F92AF92BF92CF92DF92EF92A4
:10035000FF924B015C010E9451236B017C018827B5
:1003600077FD8095982F0E9484239B01AC01C501E5
:10037000B4010E943E2220E030E048EC52E40E94AA
:10038000C9244B015C0120E030E0A9010E94BE2499
:1003900020E030E040E05FE387FD05C0C501B40127
:1003A0000E943F2204C0C501B4010E943E220E9467
:1003B00051234B015601D7FE04C0AA24BB24AC181C
:1003C000BD08B5016F77772785E892E00E94D200DB
:1003D000B501660F672F661F770B6F77772785E864
:1003E00092E00E94D200B40197FE03C0719561951E
:1003F00071096F77772785E892E0FF90EF90DF90A3
:10040000CF90BF90AF909F908F900C94D200CF93DD
:10041000DF93EC0161E070E01816190614F460E057
:1004200070E085E892E00E94D200D7FF03C0D1952A
:10043000C195D109BE016F77772785E892E00E94C8
:10044000D200BE01660F672F661F770B6F77772785
:1004500085E892E0DF91CF910C94D2002F923F92E9
:100460004F925F926F927F928F929F92AF92BF92C4
:10047000CF92DF92EF92FF920F931F93CF93DF9370
:10048000CDB7DEB763970FB6F894DEBF0FBECDBF12
:100490001A018A3A09F0B2C4DA018C91803121F54F
:1004A00011961C91119741E012968C91811101C017
:1004B00040E060EF70E085E892E04A8B0E94D20055
:1004C0006AEA70E085E892E00E94D200612F85E838
:1004D00092E00E9444204A89612F8FE891E00E94B7
:1004E000730C0E94A101C3C18131B9F501E0FA0189
:1004F0008581811101C000E0D10112968C91129783
:1005000013966C91B0E86B9FB0011124680F711DB8
:10051000882777FD8095982F0E9484236B017C01AA
:10052000F101648170E080E090E00E94822320E08D
:1005300030E048EC52E40E94E9229B01AC01C70183
:10054000B6010E943F229B01AC01D10111966C9132
:100550008FE891E00E94280A4FC48231B9F560EF1C
:1005600070E085E892E00E94D2006AEA70E085E8D7
:1005700092E00E94D20062E170E085E892E00E9481
:10058000D2008FE891E00E94E2108090A501909047
:10059000A601A090A701B090A801C090A901D09099
:1005A000AA01E090AB01F090AC016091A1017091C3
:1005B000A2018091A3019091A4010E941D01C50197
:1005C000B4010E941D01C701B6011CC2833109F0AC
:1005D00028C1FA0182816381F0E86F9FB001112484
:1005E000680F711D882777FD8095982F0E948423BE
:1005F0006B017C01D10114966C9170E080E090E079
:100600000E94822320E030E048EC52E40E94E9227C
:100610009B01AC01C701B6010E943F226F8378871E
:1006200089879A87F1018181813049F48F8198858A
:10063000A985BA85B0588F839887A987BA87D101D1
:1006400016968C91169717966C91B0E86B9FB00137
:100650001124680F711D882777FD8095982F0E94BF
:1006600084236B017C01F101608570E080E090E003
:100670000E94822320E030E048EC52E40E94E9220C
:100680009B01AC01C701B6010E943F222B013C0136
:10069000D10115968C91813021F477FA709477F816
:1006A0007094F10182856385F0E86F9FB001112499
:1006B000680F711D882777FD8095982F0E948423ED
:1006C0006B017C01D1011C966C9170E080E090E0A0
:1006D0000E94822320E030E048EC52E40E94E922AC
:1006E0009B01AC01C701B6010E943F226B017C0156
:1006F000F1018185813021F4F7FAF094F7F8F09454
:10070000D1011D968C911D971E966C91B0E86B9F40
:10071000B0011124680F711D882777FD8095982FEF
:100720000E9484234B015C01F101678570E080E049
:1007300090E00E94822320E030E048EC52E40E94E6
:10074000E9229B01AC01C501B4010E943F224B018B
:100750005C01D1015096BC91BF87F101818962890A
:10076000F0E86F9FB0011124680F711D882777FD95
:100770008095982F0E9484236B877C878D879E8726
:10078000D10153966C9170E080E090E00E9482234A
:1007900020E030E048EC52E40E94E9229B01AC01E9
:1007A0006B857C858D859E850E943F22362F472F45
:1007B000582F9B87F101248905891689123010F47E
:1007C000117001C010E065E070E080E090E02B8BDC
:1007D000388B4A8B598B0E94141E1F930F932B89C1
:1007E0002F93FB85FF9359895F934A894F933889EB
:1007F0003F938F858F93930182014F81588569853F
:100800007A858FE891E00E944A176AE070E080E004
:1008100090E00E94141E0FB6F894DEBF0FBECDBF4D
:10082000EDC2843159F5FA011181028160EF70E067
:1008300085E892E00E94D2006AEA70E085E892E0E2
:100840000E94D200612F85E892E00E94442001308E
:1008500011F462E001C060E0812F0E942E1F812F01
:100860000E949D1FBC0185E892E00E94D20067EFC4
:1008700070E085E892E00E94D200BEC2853191F41A
:10088000DA0111961C9161E0812F0E942E1FF10167
:100890008281813011F461E001C060E0812F0E940B
:1008A000671FAAC28631C1F4DA0111961C9160EF6C
:1008B00070E085E892E00E94D2006AEA70E085E884
:1008C00092E00E94D200612F85E892E00E944420CD
:1008D000812F0E94891E67C08731B1F5FA01B1806E
:1008E00061E08B2D0E942E1FD10112968C911297E0
:1008F00013960C91B0E80B9F80011124080F111D75
:10090000B801882777FD8095982F0E9484236B017A
:100910007C0120E030E0A9010E94E22287FD0CC0AA
:1009200020E030E04FE753E4C701B6010E94BE2447
:1009300018162CF46FEF01C060E070E001C0B80140
:100940008B2D0E94A61E58C28A3109F05EC0FA01A2
:10095000218182810381F0E80F9F80011124080F1B
:10096000111D60EF70E085E892E02B8B0E94D200B1
:100970006AEA70E085E892E00E94D2006AE170E0E5
:1009800085E892E00E94D200C8010E9406012B89EE
:10099000223061F02430D1F0213009F068CFC80155
:1009A0000E940D2690E00E94060161CF1A821982F2
:1009B000C8010E940D268983C80101960E940D2658
:1009C0008A8389819A810E94070251CF19821A82F3
:1009D0001B821C826E0185E0C80ED11CDE011196BF
:1009E0007D010A1B1B0BC8018E0D9F1D0E940D2649
:1009F000F70181937F01EC15FD05A9F769817A81E3
:100A00008B819C810E941D0132CF8B3109F088C0FF
:100A1000DA0113968C91139712961C91B0E88B9F74
:100A200010191124FA018181823071F0843079F13A
:100A3000813009F0E1C185816481F0E88F9F601900
:100A40001124812F90E07DC185816681B0E86B9F84
:100A5000B0011124680F711DFA018481813019F4ED
:100A60007195619571097E836D83012F10E01A8362
:100A70000983CE0101960E94D9006E810F5F1F4F3E
:100A80001A830983CE0101960E94D900B5C18581E0
:100A90006681B0E86B9FB0011124680F711D882733
:100AA00077FD8095982F0E9484236B017C01F101D2
:100AB000678170E080E090E00E94822320E030E0D7
:100AC00048EC52E40E94E9229B01AC01C701B60147
:100AD0000E943F22D10114962C91AB01BC01213020
:100AE00009F4705849835A836B837C836E01B5E0A7
:100AF000CB0ED11CFE0131967F01012F10E00E1BA1
:100B00001F0BC8018E0D9F1DD7016D917D019E8326
:100B10008D83C6010E94D900EC14FD0491F76CC1CD
:100B20008C3171F461E0FA018281811101C060E0D1
:100B3000D10111964C918FE891E00E94CB0C5CC1E1
:100B40008D3171F4FA018181813029F48FE891E0CF
:100B50000E94881B51C18FE891E00E94981B4CC1F4
:100B6000803279F4DA0111968C91813029F48FE882
:100B700091E00E94661B40C18FE891E00E94761BC5
:100B80003BC18E3109F065C0FA0182816381F0E8D2
:100B90006F9FB0011124680F711D882777FD809524
:100BA000982F0E9484236B017C01D10114966C91D3
:100BB00070E080E090E00E94822320E030E048EC8A
:100BC00052E40E94E9229B01AC01C701B6010E94D8
:100BD0003F226B017C01F1018181813021F4F7FA20
:100BE000F094F7F8F094D10116968C911697179619
:100BF0006C91B0E86B9FB0011124680F711D8827BC
:100C000077FD8095982F0E9484234B015C01F101B0
:100C1000608570E080E090E00E94822320E030E078
:100C200048EC52E40E94E9229B01AC01C501B401E9
:100C30000E943F228B019C01D10115968C9181303D
:100C400009F43058B701A6018FE891E00E94F10D38
:100C5000D3C08F3109F060C011E0FA0187818111A2
:100C600001C010E0D10114968C91149715966C91E7
:100C7000B0E86B9FB0011124680F711D882777FDC4
:100C80008095982F0E9484236B017C01F10166817D
:100C900070E080E090E00E94822320E030E048ECA9
:100CA00052E40E94E9229B01AC01C701B6010E94F7
:100CB0003F224B015C01D10111968C911197129644
:100CC0006C91B0E86B9FB0011124680F711D8827EB
:100CD00077FD8095982F0E9484236B017C01F101A0
:100CE000638170E080E090E00E94822320E030E0A9
:100CF00048EC52E40E94E9229B01AC01C701B60115
:100D00000E943F22AB01BC01E12E950184018FE8D6
:100D100091E00E945E0B70C08232B1F4FFEF2F1A97
:100D20003F0A05E610E0D1016D911D01C8010E9446
:100D300015260F5F1F4F03371105A9F760E884E6FA
:100D400090E00E94152658C0813249F560EF70E0AE
:100D500085E892E00E94D2006AEA70E085E892E0BD
:100D60000E94D20084E690E00E940D26803809F0AF
:100D70007ECD61E270E085E892E00E94D20005E657
:100D800010E0C8010E940D26682F85E892E00E94BD
:100D900044200F5F1F4F0337110599F768CD833249
:100DA00009F560EF70E085E892E00E94D2006AEAFF
:100DB00070E085E892E00E94D20063E270E085E88E
:100DC00092E00E94D20061E070E085E892E00E942B
:100DD000D20067E070E085E892E00E94D20064E013
:100DE00070E041CD843251F4FA0123814281618166
:100DF0008FE891E00E94CE0981E001C080E0639617
:100E00000FB6F894DEBF0FBECDBFDF91CF911F911B
:100E10000F91FF90EF90DF90CF90BF90AF909F9099
:100E20008F907F906F905F904F903F902F9008959C
:100E300060912601615049E251E0809128010C94B3
:100E40002E02909168019923A9F0873F21F4109216
:100E500068010C9418072091260130912701F901AF
:100E6000E85DFE4F80832F5F3F4F30932701209333
:100E700026010895803F08F4807F90E0803F91052F
:100E800039F481E0809368011092270110922601C5
:100E9000089585E892E00E94DF1F8F3F2FEF9207B1
:100EA00011F00C942107089585E892E00E94C61F76
:100EB000892B19F00E944907F7CF08951F920F92CE
:100EC0000FB60F9211242F933F934F935F936F931D
:100ED0007F938F939F93AF93BF93EF93FF938091F3
:100EE0006A0187FF05C010928500109284001AC025
:100EF00020916A01332727FD30958091690190E0A8
:100F0000281739077CF480916A01992787FD90950D
:100F1000FC01EE0FFF1FE80FF91FE559FE4F80811E
:100F200086FD15C080916A018F5F80936A012091D0
:100F30006A01332727FD30958091690190E02817D9
:100F40003907BCF480916A018C305CF112C0809149
:100F50006A01992787FD9095FC01EE0FFF1FE80FAE
:100F6000F91FE559FE4F808160E08F730E94671F73
:100F7000D9CF8091840090918500049680349C495B
:100F800018F480E49CE905C080918400909185006C
:100F9000049690938900809388008FEF80936A0174
:100FA00038C0209184003091850080916A01992792
:100FB00087FD9095FC01EE0FFF1FE80FF91FE55923
:100FC000FE4F81819281820F931F909389008093BD
:100FD000880080916A01992787FD9095FC01EE0FAA
:100FE000FF1FE80FF91FE559FE4F808186FF11C0F2
:100FF00080916A01992787FD9095FC01EE0FFF1FF4
:10100000E80FF91FE559FE4F808161E08F730E9460
:10101000671FFF91EF91BF91AF919F918F917F914A
:101020006F915F914F913F912F910F900FBE0F9055
:101030001F901895209169012C30A0F431E0320FF7
:1010400030936901FC012083822F90E0FC01EE0FB8
:10105000FF1FE80FF91FE559FE4F88EB9BE09283D5
:10106000818308952FEFFC0120830895DF92EF9292
:10107000FF920F931F93CF93DF93EC01D62E7A014B
:10108000890188818C3008F066C061E08D2D0E9456
:101090002E1F8881A82FB0E0FD01EE0FFF1FEA0F81
:1010A000FB1FE559FE4F2D2D2F739081907C922BC5
:1010B000908364EF71E06E197F0977FF02C06D5F66
:1010C0007F4F7595679575956795698344EC59E0F1
:1010D000401B510B57FF02C04D5F5F4F5595479521
:1010E000559547954A836CE00E94A0259CE0899F16
:1010F000B001112420E030E0A901460F571FFA018A
:10110000EE0FFF1FE40FF51FE559FE4F908196FD8E
:1011100016C02F5F3F4F2C30310571F781110FC082
:101120001092800082E080938100109285001092DE
:101130008400B19A80916F00826080936F008881F3
:1011400090E0FC01EE0FFF1FE80FF91FE559FE4F7D
:101150008081806480838881DF91CF911F910F917E
:10116000FF90EF90DF90089524EC39E044EF51E0D8
:101170000C943608FC01808190E0FC01EE0FFF1F0B
:10118000E80FF91FE559FE4F80818F7B808308951A
:10119000FC0180818C3070F591812DE730E0291BB6
:1011A000310997FD3395220F331F220F331F62172A
:1011B00073077CF0928121E732E0291B310997FD0A
:1011C0003395220F331F220F331F621773070CF45E
:1011D0009B0122503109220F331F4FB7F89490E042
:1011E000FC01EE0FFF1FE80FF91FE559FE4F328398
:1011F00021834FBF08954F925F926F927F92AF927B
:10120000BF92CF92DF92EF92FF920F931F93CF93F3
:10121000DF93EC012A013B0120E030E04AEF53E488
:10122000C301B2010E94E22287FF5EC020E030E0ED
:10123000A901C301B2010E94E22287FD11C020E092
:1012400030E044E353E4C301B2010E94BE24181607
:1012500054F4412C512C34E3632E33E4732E03C039
:10126000412C512C320189812DE730E0281B3109B6
:1012700087FD3395220F331F220F331F5901CC24D2
:10128000B7FCC094DC2C20E030E040E251E4C30124
:10129000B2010E94C9240E9451232A8141E752E0F1
:1012A000421B510927FD5395440F551F440F551FED
:1012B0002A01662457FC6094762C7F926F925F928D
:1012C0004F9218E0E12E17E0F12E00E010E020E050
:1012D00030E0A9010E94D8210E9484232B013C0107
:1012E0000F900F900F900F90C301B2010E945123F5
:1012F000CE01DF91CF911F910F91FF90EF90DF9082
:10130000CF90BF90AF907F906F905F904F900C9474
:10131000C808CF92DF92EF92FF920F931F93CF9363
:10132000DF9300D0CDB7DEB76C018B017C0184E088
:10133000E80EF11CC60169837A830E940D26F8012C
:1013400081938F01FFEFCF1ADF0A69817A81CE1472
:10135000DF0481F7CB010F900F90DF91CF911F91A8
:101360000F91FF90EF90DF90CF900895CF93DF9390
:10137000EC014F960E941A08CE0182960E941A082C
:10138000CE0185960E941A08CE0188960E941A08FE
:10139000CE018B96DF91CF910C941A088F929F9279
:1013A000AF92BF92CF92DF92EF92FF920F931F9373
:1013B000CF93DF9300E010E0C62FD0E0C22ED12CF7
:1013C000E12CF12C842E912CA12CB12C0C171D0793
:1013D0009CF4C701B6010E94141E61E083E00E94E4
:1013E000671FC501B4010E94141E60E083E00E94E3
:1013F000671F0F5F1F4FEACFDF91CF911F910F91B2
:10140000FF90EF90DF90CF90BF90AF909F908F9024
:101410000895CF93DF9300D000D0CDB7DEB7198207
:101420001A821B821C8224E0629FC0011124BE012B
:101430006F5F7F4F4E960E94890969817A818B8107
:101440009C810F900F900F900F90DF91CF91089596
:10145000CF92DF92EF92FF920F931F93CF93DF9380
:10146000EC01162F69017A01002351F00E94090A4C
:101470009B01AC01C701B6010E943F226B017C01B8
:1014800020E030E0A901C701B6010E94E22287FDF9
:1014900011C020E030E044E353E4C701B6010E94EC
:1014A000BE24181654F4C12CD12C84E3E82E83E416
:1014B000F82E03C0C12CD12C76011130D9F078F070
:1014C000123019F1133059F5B701A601CE018896F3
:1014D0000E94FB08CE86DF86E88AF98A20C0B70121
:1014E000A601CE014F960E94FB08CA82DB82EC82E5
:1014F000FD8215C0B701A601CE0182960E94FB08AD
:10150000CE82DF82E886F9860AC0B701A601CE0145
:1015100085960E94FB08CA86DB86EC86FD86DF91F5
:10152000CF911F910F91FF90EF90DF90CF90089592
:101530004F925F926F927F928F929F92AF92BF92E3
:10154000CF92DF92EF92FF920F931F93CF93DF938F
:10155000EC012A013B014801590120E030E040E262
:1015600051E4C501B4010E94E22287FD11C020E0D0
:1015700030E040EF52E4C501B4010E94BE241816C9
:101580006CF4812C912C30EFA32E32E4B32E06C0E4
:10159000812C912C40E2A42E41E4B42E20E030E0D6
:1015A00040E251E4C701B6010E94E22287FD11C06A
:1015B00020E030E04CED52E4C701B6010E94BE24A9
:1015C00018166CF4C12CD12C9CEDE92E92E4F92E66
:1015D00006C0C12CD12C20E2E22E21E4F22EA7017C
:1015E0009601C501B4010E943F2220E030E040E2B4
:1015F00053E40E94BE2418161CF48FEF9FEF1FC007
:1016000001E0A301920160E0CE010E94280AA50139
:10161000940161E0CE010E94280AA701960162E0D0
:10162000CE010E94280A4A825B826C827D828E8271
:101630009F82A886B986CA86DB86EC86FD86DF9106
:10164000CF911F910F91FF90EF90DF90CF90BF90BF
:10165000AF909F908F907F906F905F904F90089584
:101660006F927F928F929F92AF92BF92CF92DF92B2
:10167000EF92FF920F931F93CF93DF93CDB7DEB717
:101680003C010E94980A01E0A501940163E0C301B6
:101690000E94280AF30186869786A08AB18ADF9184
:1016A000CF911F910F91FF90EF90DF90CF90BF905F
:1016B000AF909F908F907F906F9008954F925F9220
:1016C0006F927F928F929F92AF92BF92EF920F9301
:1016D0001F93CF93DF93EC014A015B01280139018D
:1016E00020E030E0A901C501B4010E94E22287FD9B
:1016F00011C020E030E046E153E4C501B4010E948E
:10170000BE24181654F4812C912C66E1A62E63E4B5
:10171000B62E03C0812C912C540120E030E0A901A9
:10172000C301B2010E94E22287FD11C020E030E037
:1017300040EF52E4C301B2010E94BE24181654F4D3
:10174000412C512C50EF652E52E4752E03C0412CD4
:10175000512C3201EE20C1F061E0CE010E94090A55
:101760009B01AC01C501B4010E943F224B015C0109
:1017700062E0CE010E94090A9B01AC01C301B201E3
:101780000E943F222B013C01A3019201C501B4013B
:101790000E943F2220E030E044E353E40E94BE2454
:1017A00018169CF420E04AE061E0CE01DF91CF9171
:1017B0001F910F91EF90BF90AF909F908F907F906F
:1017C0006F905F904F900C94CE09B501A401CE01AB
:1017D00082960E94FB08B301A201CE018596DF919B
:1017E000CF911F910F91EF90BF90AF909F908F90EE
:1017F0007F906F905F904F900C94FB080F931F9316
:10180000CF93DF93890184E0689FE0011124BA013E
:10181000CE018A5B9F4F0E948909B801CE01C29612
:10182000DF91CF911F910F910C948909AF92BF92D4
:10183000CF92DF92EF92FF920F931F93CF93DF939C
:10184000CDB7DEB728970FB6F894DEBF0FBECDBF79
:101850008C016B01F42EE22E1D821E821F821886DF
:1018600019821A821B821C829E012F5F3F4FAE019C
:101870004B5F5F4F6F2D0E94FE0BB601882777FDEF
:101880008095982F0E94842329813A814B815C8125
:101890000E94C9242D813E814F8158850E943F229C
:1018A0005B016C01EE2061F06F2DC8010E94090AF6
:1018B0009B01AC01B501C6010E943E225B016C0197
:1018C000B501C60128960FB6F894DEBF0FBECDBF96
:1018D000DF91CF911F910F91FF90EF90DF90CF900C
:1018E000BF90AF900895BF92CF92DF92EF92FF9298
:1018F0000F931F93CF93DF93EC01162F042F75E006
:10190000B72EC12CD12C7601113089F050F0123055
:10191000A1F0133019F583E00E94891E202F43E0C7
:1019200011C082E00E94891E202F40E00BC080E0A1
:101930000E94891E202F41E005C081E00E94891E7F
:10194000202F42E0BC01CE010E94160C9B01AC018D
:10195000C701B6010E943F226B017C016AE070E082
:1019600080E090E00E94141EBA9471F620E030E00E
:1019700040EA50E4C701B6010E94E922DF91CF910D
:101980001F910F91FF90EF90DF90CF90BF9008953F
:1019900040E00C94730CCF92DF92EF92FF920F9382
:1019A0001F93CF93DF9300D0CDB7DEB78C018BE0D0
:1019B00090E04A8369830E940D2691E04A81698103
:1019C000803809F090E0411126C0662309F199237F
:1019D00009F4A1C082E00E94891EC3970CF49BC049
:1019E00060E0C8010E94C80C6B017C016BE070E0F4
:1019F0008EEA91E00E94B408B701A6018EEA91E058
:101A00000E94FB08F801C282D382E482F582B8C04A
:101A10008EEA91E07BC0413039F5662311F19923BC
:101A200009F486C080E00E94891EC3970CF480C030
:101A300061E08FE891E00E94C80C6B017C016DE0D1
:101A400070E081EB91E00E94B408B701A60181EB40
:101A500091E00E94FB08F801C682D782E086F186F9
:101A60008FC081EB91E052C0423039F5662311F10D
:101A7000992309F46AC081E00E94891EC3970CF47F
:101A800064C062E08FE891E00E94C80C6B017C01A9
:101A90006CE070E084EB91E00E94B408B701A6010D
:101AA00084EB91E00E94FB08F801C286D386E486AD
:101AB000F58666C084EB91E029C0433051F566237A
:101AC00019F1992309F44EC083E00E94891E8536DE
:101AD00091050CF447C063E08FE891E00E94C80CC8
:101AE0006B017C016AE070E087EB91E00E94B40832
:101AF000B701A60187EB91E00E94FB08F801C686BA
:101B0000D786E08AF18A3CC087EB91E00E94BA0850
:101B100037C080E036C06BE070E08EEA91E00E9452
:101B2000B40840E050E064EB72E48EEA91E026C035
:101B30006DE070E081EB91E00E94B40840E050E07D
:101B400068EC72E481EB91E019C06CE070E084EB2A
:101B500091E00E94B40840E050E060E772E484EB5A
:101B600091E00CC06AE070E087EB91E00E94B4085D
:101B700040E050E064EB72E487EB91E00E94FB08E8
:101B800081E00F900F90DF91CF911F910F91FF9007
:101B9000EF90DF90CF900895CF93DF93EC018AE030
:101BA00090E00E940D26803831F02AE04AE062E39E
:101BB000CE010E94CE0940E061E0CE010E94CB0C34
:101BC00041E061E0CE010E94CB0C42E061E0CE0139
:101BD0000E94CB0C43E061E0CE01DF91CF910C94E9
:101BE000CB0C2F923F924F925F926F927F928F9287
:101BF0009F92AF92BF92CF92DF92EF92FF920F939C
:101C00001F93CF93DF93CDB7DEB766970FB6F894E7
:101C1000DEBF0FBECDBF9E8B8D8B6A017B0128017D
:101C200039011D821E821F82188619821A821B8228
:101C30001C828DE090E00E940D26803869F080E0E3
:101C400090E0A0E2B1EC8D839E83AF83B887898357
:101C50009A83AB83BC830EC0BE016B5F7F4F84E170
:101C600090E00E948909BE016F5F7F4F88E190E09C
:101C70000E94890920E030E0A901C701B6010E9455
:101C8000E22287FD17C020E030E043E453E4C701BF
:101C9000B6010E94BE24181694F020E030E048E817
:101CA00052E4C701B6010E943F2269877A878B8779
:101CB0009C870DC080E090E0A8E8B2E404C080E01A
:101CC00090E8A3E8B3E489879A87AB87BC8720E0D4
:101CD00030E046E153ECC301B2010E94E22287FDED
:101CE00011C020E030E040E253E4C301B2010E94A1
:101CF000BE2418166CF4412C512CF0E26F2EF3E444
:101D00007F2E06C0412C512CE6E16E2EE3EC7E2E98
:101D100029853A854B855C85CA01B9010E94C92491
:101D20006B017C01A3019201C301B2010E94C9248D
:101D30009B01AC01C701B6010E943F226B017C01EF
:101D400020E030E047E655E40E943F224B015C0171
:101D500020E030E048EC57E4C701B6010E94C924F6
:101D60006D877E878F87988BA5019401C501B4018B
:101D70000E94C9249B01AC016D857E858F85988961
:101D80000E943E220E943625698B7A8B8B8B9C8B1E
:101D9000A7019601C701B6010E943F226D877E8789
:101DA0008F87988BA501940169857A858B859C85A1
:101DB0000E94C9244B015C0129893A894B895C89BD
:101DC000C301B2010E94C9249B01AC01C501B40149
:101DD0000E943F224B015C0120E030E040E253E4EE
:101DE0006D857E858F8598890E94C9249B01AC01F1
:101DF000C501B4010E94E9220E943022698B7A8BCE
:101E00008B8B9C8B20E030E047E655E4C701B601A0
:101E10000E943E224B015C0120E030E24BEA57E495
:101E2000C701B6010E94C9246B017C01A501940180
:101E3000C501B4010E94C9249B01AC01C701B601D0
:101E40000E943E220E9436256B017C01A50194016F
:101E500069857A858B859C850E94C9244B015C012C
:101E6000A7019601C301B2010E94C9249B01AC01E4
:101E7000C501B4010E943E226B017C0120E030E0EC
:101E800044E153E46D857E858F8598890E94C9243D
:101E90009B01AC01C701B6010E94E9220E943022D9
:101EA0004B015C0121EE3EE245E652E469897A8904
:101EB0008B899C890E94C92429813A814B815C814C
:101EC0000E943F2220E030E040E850E40E943E22A1
:101ED0000E94512369877A878B879C87CD80DE801B
:101EE000EF80F88421EE3EE245E652E4C501B401FC
:101EF0000E94C924A70196010E943F2220E030E001
:101F000040E851E40E943F220E9451231B01882790
:101F100077FD8095982F0E9484234B015C0120E07F
:101F200030E040EA50E4C701B6010E943F222B0195
:101F30003C019B01AC01C501B4010E94E22287FF74
:101F400003C0C301B20114C020E030E041E153E41A
:101F5000C701B6010E943F226B017C019B01AC01CD
:101F6000C501B4010E94BE2418162CF4C701B601A5
:101F70000E9451231B01A985BA85BD01882777FDE1
:101F80008095982F0E9484234B015C01B101882722
:101F900077FD8095982F0E948423AB01BC01EE242D
:101FA000E394950184018D899E890E945E0B66965B
:101FB0000FB6F894DEBF0FBECDBFDF91CF911F915A
:101FC0000F91FF90EF90DF90CF90BF90AF909F90D8
:101FD0008F907F906F905F904F903F902F900895DB
:101FE0002F923F924F925F926F927F928F929F9229
:101FF000AF92BF92CF92DF92EF92FF920F931F9317
:10200000CF93DF93CDB7DEB728970FB6F894DEBF36
:102010000FBECDBF1C014D835E836F837887C901DE
:10202000B80126EE3EE245E652E40E94E9224B0169
:102030005C010E94E6222B013C0126EE3EE245E6D1
:1020400052E4C701B6010E94E9226B017C010E94A3
:10205000E62269837A838B839C8323E333E34DE613
:1020600051E4C301B2010E94C9242EEE3CE747E0CF
:1020700050E40E943F222B013C0126EF38E240E869
:1020800051E469817A818B819C810E94C9249B01E2
:10209000AC01C301B2010E943F2269837A838B8322
:1020A0009C8326EE3EE245E652E46D817E818F817F
:1020B00098850E94E9222B013C010E94E62290585B
:1020C00029813A814B815C810E94C924F101628B94
:1020D000738B848B958B20E030E0A901C301B201A2
:1020E0000E94BE24181624F0C301B201905802C009
:1020F000C301B2010E942C25905829813A814B815D
:102100005C810E94C924F101668B778B808F918F4F
:1021100020E030E0A901C501B4010E94BE241816D8
:1021200024F0C501B401905802C0C501B4010E9459
:102130002C2523E333E34DE651E40E94C92426E82D
:102140003BEE43E351E40E943F224B015C0120E05F
:1021500030E0A901C701B6010E94BE24181624F080
:10216000C701B601905802C0C701B6010E942C25D4
:1021700026EF38E240E851E40E94C9249B01AC01FB
:10218000C501B4010E943E22F101628F738F848FDA
:10219000958F28960FB6F894DEBF0FBECDBFDF91A6
:1021A000CF911F910F91FF90EF90DF90CF90BF9054
:1021B000AF909F908F907F906F905F904F903F90E7
:1021C0002F9008954F925F926F927F928F929F927D
:1021D000AF92BF92CF92DF92EF92FF920F931F9335
:1021E000CF93DF93EC0182E00E94891E20E040E063
:1021F000BC018FE891E00E94160C4B015C0180E06D
:102200000E94891E20E041E0BC018FE891E00E941D
:10221000160C2B013C0181E00E94891E20E042E067
:10222000BC018FE891E00E94160C6B017C019301C8
:102230008201B501A401CE010E94F00FDF91CF9180
:102240001F910F91FF90EF90DF90CF90BF90AF90D4
:102250009F908F907F906F905F904F9008952F92F6
:102260003F924F925F926F927F928F929F92AF9226
:10227000BF92CF92DF92EF92FF920F931F93CF9373
:10228000DF93CDB7DEB768970FB6F894DEBF0FBE09
:10229000CDBF5C012A013B01C901B80117011C2D0A
:1022A000A30192010E943E2269837A838B839C83DF
:1022B000D5010D90BC91A02DBA87A98700E0CD0172
:1022C000A0E0B0E08D839E83AF83B88789819A8137
:1022D000AB81BC81B0588F87988BA98BBA8BA02E0D
:1022E000B12CE985FA85AE16BF0608F07DC1123023
:1022F00009F467C080F5112309F40AC1113009F00F
:1023000071C14501880C991C880C991C820C931C86
:10231000B501882777FD8095982F0E9484239B0123
:10232000AC0169817A818B819C810E94C9246B01F7
:102330007C016D817E818F8198850E9482239B0123
:10234000AC01C701B6010E94E922A30192010E94DB
:102350003F22D40142C1133009F499C0143009F06E
:1023600041C1602F70E080E090E00E9482236B0109
:102370007C016D817E818F8198850E9482239B01E3
:10238000AC01C701B6010E94E9226B017C01C501C5
:10239000880F991F880F991F820D931D9C878B872B
:1023A000A70196016F85788989899A890E94C92435
:1023B0004B015C0120E030E040E050E4C701B60191
:1023C00098C0B501882777FD8095982F0E948423B7
:1023D0006B017C016D817E818F8198850E948223B3
:1023E00020E030E040E05FE30E94C9249B01AC01A3
:1023F000C701B6010E94E9226B017C0120E030E0B8
:1024000040E85FE30E94E222AA0CBB1CAA0CBB1CA2
:1024100087FF0FC0A20CB31C20E030E040E05FE378
:1024200069817A818B819C810E94C924A7019601D0
:1024300050C020E030E040E85FE3C701B6010E94F1
:102440003E226B017C01C1018A0D9B1D9C878B87FD
:1024500020E030E040E05FE36F85788989899A89E0
:102460000E94C9244B015C0120E030E040E050E4D0
:10247000C701B6010E943E229B01AC01C701B60113
:102480000E94C92420E030E040E85FE332C0602FC2
:1024900070E080E090E00E9482236B017C016D81FE
:1024A0007E818F8198850E9482239B01AC01C701A8
:1024B000B6010E94E9226B017C01AA0CBB1CAA0C8C
:1024C000BB1CA20CB31CA701960169817A818B8188
:1024D0009C810E94C924A70196010E94C924A301DE
:1024E00092010E943F22F50160837183828393836E
:1024F00079C00E943E229B01AC01C501B4010E943B
:10250000C924A30192010E943F22AB85BC8565C00E
:10251000602F70E080E090E00E9482236B017C01DC
:102520006D817E818F8198850E9482239B01AC0101
:10253000C701B6010E94E9226B017C019B01AC013D
:102540000E94C9246B877C878D879E87F501EE0FDB
:10255000FF1FEE0FFF1FE20DF31DF88FEF8B20E042
:1025600030E040E450E469817A818B819C810E9453
:10257000C9242B853C854D855E850E94C9249B011D
:10258000AC01C301B2010E943F224B015C0120E07B
:1025900030E040E050EC69817A818B819C810E941F
:1025A000C9246B8B7C8B8D8B9E8BA70196016B85D1
:1025B0007C858D859E850E94C9249B01AC016B8919
:1025C0007C898D899E890E94C9249B01AC01C5012B
:1025D000B4010E943F22AF89B88D6D937D938D9396
:1025E0009C9313970F5F7BCE68960FB6F894DEBF6F
:1025F0000FBECDBFDF91CF911F910F91FF90EF9054
:10260000DF90CF90BF90AF909F908F907F906F9012
:102610005F904F903F902F9008954F925F926F92EE
:102620007F928F929F92AF92BF92CF92DF92EF9262
:10263000FF920F931F93CF93DF9300D000D0CDB7BD
:10264000DEB72A013B01C901B80126EE3EE245E6AC
:1026500052E40E94E9220E94E62269837A838B83F6
:102660009C8326EE3EE245E652E4C701B6010E9495
:10267000E9220E94E6224B015C0123E333E34DE6AD
:1026800051E469817A818B819C810E94C9242EEE5C
:102690003CE747E050E40E943F226B017C0126EFBB
:1026A00038E240E851E4C501B4010E94C9249B010D
:1026B000AC01C701B6010E943F224B015C0126EE2E
:1026C0003EE245E652E4C301B2010E94E9226B01F9
:1026D0007C0120E030E0A9010E94BE24181624F0FD
:1026E000C701B601905802C0C701B6010E942C254F
:1026F0009058A50194010E94C9240F900F900F904B
:102700000F90DF91CF911F910F91FF90EF90DF908D
:10271000CF90BF90AF909F908F907F906F905F9081
:102720004F9008952F923F924F925F926F927F92B7
:102730008F929F92AF92BF92CF92DF92EF92FF92D1
:102740000F931F93CF93DF93CDB7DEB768970FB684
:10275000F894DEBF0FBECDBF988F8F8B49835A830D
:102760006B837C830F83188729873A8715019E82A4
:102770008D822CE53FE844EC51E4C701B6010E948C
:10278000BE2418169CF028E939E941E550ECC70150
:10279000B6010E94E22287FF11C058E9C52E59E90F
:1027A000D52E51E5E52E50ECF52E08C06CE5C62E71
:1027B0006FE8D62E64ECE62E61E4F62E2EEE3CE7B2
:1027C00047E050E46F81788589859A8590580E940A
:1027D0003E2223E333E34DE651E40E94E9224B011C
:1027E0005C0126E83BEE43E351E4C701B6010E94D9
:1027F0003E2223E333E34DE651E40E94E9222B011C
:102800003C01A5019401C501B4010E94C9246F8750
:10281000788B898B9A8BA3019201C301B2010E942C
:10282000C9246B877C878D879E872F853889498946
:102830005A890E943F220E9436256B8B7C8B8D8BA0
:102840009E8B2AE037ED43EA5BE369817A818B81D5
:102850009C810E94E22218160CF4B0C02AE037EDE9
:1028600043EA5BEB69817A818B819C810E94BE2463
:1028700087FDA4C080E090E0A4EBB2E4F101808386
:102880009183A283B38320E030E0A901C301B201A8
:102890000E94E2228823C9F0C501B4019058A30127
:1028A00092010E94E9220E94BA2226EE3EE245E60B
:1028B00052E40E94C9244B015C0120E030E0A901F0
:1028C0000E94BE2418168CF406C0812C912C44EB77
:1028D000A42E42E4B42E20E030E044E353E4C501EA
:1028E000B4010E943E224B015C012F853889498941
:1028F0005A8960E070E080E89FE30E943E222B85C9
:102900003C854D855E850E943E2224E937E745E9F6
:102910005FE30E943E2226E531E54AE050E40E9452
:10292000E9222B893C894D895E890E94E9220E9417
:10293000A32226EE3EE245E652E40E94C924A50108
:1029400094010E943E224B015C0120E030E0A9018D
:102950000E94E222EDA5FEA587FD05C0808291823E
:10296000A282B38204C0108211821282138226EEE8
:102970003EE245E652E4EDA5FEA5608171818281CB
:1029800093810E94E9220E942C2526EF38E240E83C
:1029900051E40E94C9249B01AC01C701B6010E9409
:1029A0003F2226E83BEE43E351E40E943E2223E32C
:1029B00033E34DE651E40E94E9222AC129813A819C
:1029C0004B815C816F81788589859A850E94E92297
:1029D0004B015C010E94BA2226EE3EE245E652E43B
:1029E0000E94C9246B017C0120E030E0A901C501EF
:1029F000B4010E94E22287FD06C0F101C082D182AB
:102A0000E282F3820DC020E030E044E353E4C701EA
:102A1000B6010E943F22F101608371838283938318
:102A200020E030E0A9016F81788589859A850E9430
:102A3000E22281111AC020E030E0A90169817A8187
:102A40008B819C810E94BE24181654F480E090E093
:102A5000A4E3B3E4F10180839183A283B38305C02F
:102A6000F101108211821282138226EE3EE245E6C7
:102A700052E4F10160817181828193810E94E92297
:102A80000E94E6229B01AC0169817A818B819C8145
:102A900090580E94E9222EEE3CE747E050E40E9465
:102AA0003E2223E333E34DE651E40E94E9224B0149
:102AB0005C0120E030E0A901C301B2010E94E222E2
:102AC0008823C9F0A3019201C501B40190580E9466
:102AD000E9220E94BA2226EE3EE245E652E40E9436
:102AE000C9246B017C0120E030E0A9010E94BE24D2
:102AF00018168CF406C0C12CD12C34EBE32E32E432
:102B0000F32E20E030E044E353E4C701B6010E9415
:102B10003E226B017C01A5019401C501B4010E9414
:102B2000C9249B01AC016B857C858D859E850E94A7
:102B30003F224B015C010E94362569837A838B8397
:102B40009C8324E937E745E95FE3C501B4010E94AE
:102B50003F2220E030E040E85FE30E943E229058B0
:102B600026E531E54AE050E40E94E92229813A81D4
:102B70004B815C810E94E9220E94A32226EE3EE264
:102B800045E652E40E94C924A70196010E943E2214
:102B9000EDA5FEA5608371838283938320E030E0FE
:102BA000A901F10160817181828193810E94E222F9
:102BB00087FF05C0F101108211821282138226EE76
:102BC0003EE245E652E4EDA5FEA560817181828179
:102BD00093810E94E9226B017C0120E030E0A90191
:102BE0000E94BE24181624F0C701B601905802C0F6
:102BF000C701B6010E942C2526E531E54AE85FE3CE
:102C00000E94C9249B01AC01C301B2010E943F2272
:102C10000E94A32226EE3EE245E652E40E94C92429
:102C2000ED81FE816083718382839383F101C08093
:102C3000D180E280F38020E030E0A901C701B60135
:102C40000E94BE24181624F0F7FAF094F7F8F094D6
:102C5000F101C082D182E282F382ED81FE81808027
:102C60009180A280B38020E030E0A901C501B401C9
:102C70000E94BE24181624F0B7FAB094B7F8B094A6
:102C8000ED81FE8180829182A282B382EDA5FEA5B4
:102C9000C080D180E280F38020E030E0A901C7014C
:102CA000B6010E94E22287FD32C0F10140815181CC
:102CB00062817381950184018F89988D0E940D1323
:102CC0006B017C012DEC3CEC4CEC5DE36F81788575
:102CD00089859A850E943F229B01AC01C701B601FC
:102CE0000E94BE2418160CF48BC02DEC3CEC4CEC6E
:102CF0005DE36F81788589859A850E943E229B01DC
:102D0000AC01C701B6010E94E22287FD79C0F10142
:102D1000C080D180E280F380A7019601C701B6018F
:102D20000E94772581117BC0E894F7F82FEF3FEFE1
:102D30004FE75FE7C701B6010E94772581110BC0FD
:102D40002FEF3FEF4FE75FE7C701B6010E94E22296
:102D500018160CF464C0ED81FE81C080D180E28041
:102D6000F380A7019601C701B6010E947725811162
:102D700061C0E894F7F82FEF3FEF4FE75FE7C70137
:102D8000B6010E94772581110BC02FEF3FEF4FE76F
:102D90005FE7C701B6010E94E22218160CF44AC090
:102DA000EDA5FEA5C080D180E280F380A701960149
:102DB000C701B6010E947725811148C0460157011D
:102DC000E894B7F82FEF3FEF4FE75FE7C501B40195
:102DD0000E94772581110AC02FEF3FEF4FE75FE791
:102DE000C501B4010E94E222181684F120E030E00F
:102DF000A901C701B6010E94E22287FF32C026C0A6
:102E0000A501940160E070E084E393E40E943E2217
:102E1000ED81FE81608371838283938378CF60E04C
:102E20008FE891E00E94C80CF10160837183828376
:102E3000938391CF61E08FE891E00E94C80CED810F
:102E4000FE816083718382839383AACF62E08FE8DF
:102E500091E00E94C80CEDA5FEA56083718382837A
:102E6000938368960FB6F894DEBF0FBECDBFDF9197
:102E7000CF911F910F91FF90EF90DF90CF90BF9077
:102E8000AF909F908F907F906F905F904F903F900A
:102E90002F9008952F923F924F925F926F927F9260
:102EA0008F929F92AF92BF92CF92DF92EF92FF925A
:102EB0000F931F93CF93DF93CDB7DEB7C454D109DF
:102EC0000FB6F894DEBF0FBECDBF1C012A013B0137
:102ED0000C8F1D8F2E8F3F8FCAA6DBA6ECA6FDA6FA
:102EE0008AA29BA2ACA2BDA22DB73EB725963FAF4A
:102EF0002EAF25978BE090E00E940D26803849F098
:102F00002AE04AE062E3C1010E94CE098FEF9FEF01
:102F1000BAC3A3019201C301B2010E94C9246B018B
:102F20007C012C8D3D8D4E8D5F8DCA01B9010E94B3
:102F3000C9249B01AC01C701B6010E943F220E9437
:102F400036256B017C0120E030E040E052E40E9435
:102F5000BE241816F4F4A701960160E070E080E04A
:102F600092E40E94E9226B017C019B01AC01C30148
:102F7000B2010E94C9242B013C01A70196016C8D6E
:102F80007D8D8E8D9F8D0E94C9246C8F7D8F8E8F3D
:102F90009F8FD1011A96CD90DD90ED90FC901D97FA
:102FA00016960D911D912D913C91199712964D9168
:102FB0005D916D917C911597C1010E94F00FD10137
:102FC00052968D919D910D90BC91A02D8EAB9FAB93
:102FD000A8AFB9AFD10156968D919D910D90BC913E
:102FE000A02D8AAF9BAFACAFBDAFD1015A968D91EA
:102FF0009D910D90BC91A02D22968CAF9DAFAEAF50
:10300000BFAF22976A96BFAD6A97B170BEA31FA2E9
:10301000EEA1FFA1BF01882777FD8095982F0E9420
:1030200084236B017C019B01AC016EA97FA988AD53
:1030300099AD0E94C924A30192010E943F226EA370
:103040007FA388A799A7A70196016AAD7BAD8CAD38
:103050009DAD0E94C9242C8D3D8D4E8D5F8D0E94AB
:103060003F222B013C01A701960122966CAD7DAD5C
:103070008EAD9FAD22970E94C9242AA53BA54CA5E1
:103080005DA50E943F226C8F7D8F8E8F9F8FCE011A
:103090000D969F938F939E012F5E3F4F4901089697
:1030A0005C01CC8CDD8CEE8CFF8C930182014EA1F7
:1030B0005FA168A579A5C1010E9492138D899E899F
:1030C000AF89B88D8AA79BA7ACA7BDA7D1011296DF
:1030D0008D919D910D90BC91A02D8EA79FA7A8AB1F
:1030E000B9AB9C01AD016AA57BA58CA59DA50E94ED
:1030F0003E226B017C010F900F9020E030E0A9018F
:103100000E94BE2418161CF4C701B60103C0C701F3
:10311000B60190580E9456238B01F1012681378118
:103120004085518569897A898B899C890E943E22D4
:103130004B015C0120E030E0A9010E94BE2418167A
:103140001CF4C501B40103C0C501B40190580E942C
:1031500056236CAB23967FAF2397D1011A962D91FE
:103160003D914D915C911D976D857E858F859889E8
:103170000E943E224B015C0120E030E0A9010E9448
:10318000BE2418161CF4C501B40103C0C501B40166
:1031900090580E9456238CA923969FAD23978017A1
:1031A000910708F4C8018C018617970708F48B0172
:1031B0000135110510F000E510E0F10111830083E5
:1031C0006A96FFAD6A97F1FF0CC0D1011E962D9152
:1031D0003D914D915C9151976AA17BA18CA19DA1DC
:1031E00012C06A96BFAD6A97B2FF13C0F10126857F
:1031F0003785408951896AA17BA18CA19DA10E943C
:103200003F22A70196010E943F226AA37BA38CA3C1
:103210009DA320E030E0A9016E966CAD7DAD8EAD32
:103220009FAD6E970E94BE2418160CF010C26F96C8
:10323000FFAD6F97F13009F0FFC02DB73EB73FA348
:103240002EA3000F111F000F111F8DB79EB7801BFB
:10325000910B0FB6F8949EBF0FBE8DBFADB7BEB732
:1032600011963D01EDB7FEB7E01BF10B0FB6F894D8
:10327000FEBF0FBEEDBF2DB73EB72F5F3F4F3D8F57
:103280002C8F8DB79EB7801B910B0FB6F8949EBF05
:103290000FBE8DBFADB7BEB711962D01EDB7FEB70E
:1032A000E01BF10B0FB6F894FEBF0FBEEDBF2DB7BC
:1032B0003EB72F5F3F4F39A328A3A096CFACA0976E
:1032C00073010AA51BA52CA53DA54EA55FA568A960
:1032D00079A9C1010E942F1109891A892B893C897A
:1032E000D10116964D915D916D917C911997A096A3
:1032F000CFACA097EC8CFD8CC1010E942F110D85E5
:103300001E852F853889F101428553856485758531
:10331000A096CFACA0977201C1010E942F11D101DC
:103320001E964D915D916D917C915197A096CFAC79
:10333000A097E8A0F9A00AA11BA12CA13DA1C10161
:103340000E942F111B8E2B8D822F90E0D1012D9189
:103350003C918217930708F067C0880F991F880F68
:10336000991FA196BFADA197BB2311F1E8A1F9A1C7
:10337000E80FF91F80809180A280B380F201E80FEE
:10338000F91FC080D180E280F380EC8DFD8DE80FC5
:10339000F91F0081118122813381F301E80FF91FA8
:1033A0004081518162817381C1010E94300B19C03B
:1033B000F201E80FF91FC080D180E280F380EC8D2C
:1033C000FD8DE80FF91F0081118122813381F30106
:1033D000E80FF91F4081518162817381C1010E9410
:1033E000980A20E030E04AE754E46E966CAD7DAD7B
:1033F0008EAD9FAD6E970E94C9246B017C01F101D7
:103400006081718180E090E00E9482239B01AC0189
:10341000C701B6010E94E9220E9456230E94141E91
:10342000FB8DFF5FFB8F8FCFEEA1FFA10FB6F8944E
:10343000FEBF0FBEEDBF0BC16F96FFAD6F97F111D1
:1034400006C12DB73EB73DAB2CAB000F111F000FCF
:10345000111F8DB79EB7801B910B0FB6F8949EBFBE
:103460000FBE8DBFADB7BEB71196B9A3A8A3EDB778
:10347000FEB7E01BF10B0FB6F894FEBF0FBEEDBF19
:103480002DB73EB72F5F3F4F3BA72AA78DB79EB7FB
:10349000801B910B0FB6F8949EBF0FBE8DBFADB7CA
:1034A000BEB71196BFA7AEA7EDB7FEB7E01BF10BF5
:1034B0000FB6F894FEBF0FBEEDBF2DB73EB72F5F1E
:1034C0003F4F3BAB2AABA096CFACA097E8A0F9A0AA
:1034D0000EA11FA128A539A54EA95FA968AD79AD98
:1034E000C1010E942F11A096CFACA097EAA4FBA423
:1034F000930182014AAD5BAD6CAD7DADC1010E940F
:103500002F11A096CFACA097EEA4FFA40C8D1D8D1B
:103510002E8D3F8D22964CAD5DAD6EAD7FAD229769
:10352000C1010E942F11D1011E964D915D916D91A7
:103530007C915197A096CFACA097EAA8FBA80AA1CE
:103540001BA12CA13DA1C1010E942F11512CFE01F4
:103550003196FA8FE98F652C712CF1018081918170
:103560006816790608F06CC0660C771C660C771C30
:10357000EEA5FFA5E60DF71DC080D180E280F380A7
:10358000EAA5FBA5E60DF71D00811181228133819B
:10359000E8A1F9A1E60DF71D408151816281738197
:1035A000FA8DFF93898D8F93DE0115964D01FE01F3
:1035B00039965F01C1010E9492130F900F90C9804C
:1035C000DA80EB80FC800D811E812F813885498552
:1035D0005A856B857C85A196FFADA197FF2361F08D
:1035E000EAA9FBA9E60DF71D80809180A280B38037
:1035F000C1010E94300B03C0C1010E94980A20E063
:1036000030E04AE754E46E966CAD7DAD8EAD9FAD73
:103610006E970E94C9246B017C01D1016D917C9150
:1036200080E090E00E9482239B01AC01C701B601BB
:103630000E94E9220E9456230E94141E53948BCFAD
:103640002CA93DA90FB6F8943EBF0FBE2DBF4D89E2
:103650005E896F89788D09891A892B893C89CD8487
:10366000DE84EF84F888A1968FADA197882341F07E
:103670008AA09BA0ACA0BDA0C1010E94300B03C0DA
:10368000C1010E94980A2596AEADBFAD25970FB631
:10369000F894BEBF0FBEADBFCC5BDF4F0FB6F89442
:1036A000DEBF0FBECDBFDF91CF911F910F91FF9075
:1036B000EF90DF90CF90BF90AF909F908F907F90D2
:1036C0006F905F904F903F902F900895CF93DF932E
:1036D000EC0161E089E00E942E1F60E089E00E9419
:1036E000671F81E08E8FDF91CF910895CF93DF9395
:1036F000EC018E8D882349F061E089E00E942E1F45
:1037000061E089E00E94671F1E8EDF91CF910895CE
:1037100061E086E00E942E1F61E085E00E942E1F7E
:1037200060E085E00E94671F61E086E00C94671FFF
:1037300061E086E00E942E1F61E085E00E942E1F5E
:1037400061E085E00E94671F60E086E00E94671FDD
:1037500062E370E080E090E00E94141E60E085E08B
:103760000C94671F8FE891E00C94B6098091EC01EE
:1037700090E02091ED01821B910908952091ED01C7
:103780008091EC01281750F4E22FF0E0E251FE4F57
:10379000808190E02F5F2093ED0108958FEF9FEFE0
:1037A0000895E091ED018091EC01E81730F4F0E02C
:1037B000E251FE4F808190E008958FEF9FEF0895D2
:1037C0000895CF92DF92EF92FF920F931F93CF93C2
:1037D000DF937C01CB018A012091C901222389F06A
:1037E000EB016B01C40ED51ECC15DD0569F06991A6
:1037F000D701ED91FC910190F081E02DC701099571
:10380000F3CF642F0E94511CC801DF91CF911F910B
:103810000F91FF90EF90DF90CF900895CF93DF93BB
:103820001F92CDB7DEB769832091C9012223D1F061
:103830002091CA01203240F021E030E0FC013383C6
:10384000228380E090E015C08091CB01E82FF0E06A
:10385000E453FE4F998190838F5F8093CB018093D7
:10386000CA0105C061E0CE0101960E94511C81E0B1
:1038700090E00F90DF91CF910895FC0113821282A6
:1038800048EE53E060E070E04483558366837783BD
:1038900089E091E09183808308958DEB91E00C9411
:1038A0003D1C613298F420917B02243089F46093AE
:1038B0003002FC0182E392E0DC012A2F281B26174C
:1038C00018F421912D93F9CF80E0089581E00895B7
:1038D00082E0089585ED8093BC008091BC0084FD5A
:1038E000FCCF10927B02089585EC8093BC0010926F
:1038F0007B0208951F920F920FB60F9211242F93FF
:103900003F934F935F936F937F938F939F93AF9367
:10391000BF93EF93FF938091B900887F803609F4BD
:103920009EC078F5883209F45DC090F4803109F4C6
:1039300056C038F4882309F4F5C0883009F44FC024
:10394000F5C0883109F44EC0803209F45FC0EEC082
:10395000803409F46AC058F4803309F457C08833BE
:1039600009F0E4C080930E020E94741CDFC0803511
:1039700009F44FC0883509F45DC0883409F0D6C019
:10398000D3C0883909F4C4C0A8F4883709F467C0E3
:1039900038F4883609F463C0803709F460C0C6C0C3
:1039A000883809F4B5C0803909F45FC0803809F05F
:1039B000BDC05BC0803B09F483C038F4803A09F491
:1039C00066C0883A09F47CC0B1C0803C09F4A4C048
:1039D000883C09F4A1C0883B09F487C0A7C0809146
:1039E0007A0210C09091530280915202981770F59C
:1039F000E091530281E08E0F80935302F0E0EC5A85
:103A0000FD4F80818093BB0085EC83C080930E02C4
:103A10008BC0E091530281E08E0F8093530280911E
:103A2000BB00F0E0EC5AFD4F8083909153028091EF
:103A300052026BC0E091530281E08E0F80935302DB
:103A40008091BB00F0E0EC5AFD4F808380917902B9
:103A500081116AC081E08093780284EA5EC083E0CD
:103A600080937B0210920F02CFCF80910F028032A1
:103A700008F04EC0E0910F0281E08E0F80930F029C
:103A80008091BB00F0E0E05FFD4F8083BDCF0E94DE
:103A9000741C80910F02803230F4E0910F02F0E04C
:103AA000E05FFD4F108260910F0270E0E0917402C0
:103AB000F091750280E192E0099510920F0236C0F4
:103AC00084E080937B021092310210923002E091E8
:103AD0007602F0917702099580913002811105C03C
:103AE00081E08093300210923202E091310281E055
:103AF0008E0F80933102F0E0EE5CFD4F8081809369
:103B0000BB009091310280913002981708F47CCF6D
:103B100085E88093BC000AC085EC8093BC001092BD
:103B20007B0204C010920E020E946A1CFF91EF916A
:103B3000BF91AF919F918F917F916F915F914F91C5
:103B40003F912F910F900FBE0F901F9018951F92CD
:103B50000F920FB60F9211242F933F938F939F9341
:103B6000AF93BF9380917D0290917E02A0917F02DE
:103B7000B091800230917C0223E0230F2D3720F496
:103B80000196A11DB11D05C026E8230F0296A11DB7
:103B9000B11D20937C0280937D0290937E02A093BE
:103BA0007F02B09380028091810290918202A09165
:103BB0008302B09184020196A11DB11D8093810200
:103BC00090938202A0938302B0938402BF91AF913D
:103BD0009F918F913F912F910F900FBE0F901F904B
:103BE00018953FB7F8948091810290918202A0913C
:103BF0008302B091840226B5A89B05C02F3F19F01F
:103C00000196A11DB11D3FBF6627782F892F9A2FDE
:103C1000620F711D811D911D42E0660F771F881F85
:103C2000991F4A95D1F708958F929F92AF92BF92B4
:103C3000CF92DF92EF92FF926B017C010E94F11D07
:103C40004B015C01C114D104E104F104F1F00E94C4
:103C50002F220E94F11D681979098A099B09683E83
:103C600073408105910570F321E0C21AD108E10883
:103C7000F10888EE880E83E0981EA11CB11CC114C7
:103C8000D104E104F10429F7DDCFFF90EF90DF903C
:103C9000CF90BF90AF909F908F900895789484B507
:103CA000826084BD84B5816084BD85B5826085BD38
:103CB00085B5816085BDEEE6F0E08081816080831E
:103CC000E1E8F0E010828081826080838081816001
:103CD0008083E0E8F0E0808181608083E1EBF0E0C8
:103CE000808184608083E0EBF0E08081816080836C
:103CF000EAE7F0E080818460808380818260808355
:103D00008081816080838081806880831092C1007F
:103D100008958E3008F08E5087702091040190E451
:103D2000299F90011124822B80937C0080917A003E
:103D3000806480937A0080917A0086FDFCCF809128
:103D400078002091790090E0922B08951F93CF93F3
:103D5000DF93182FEB0161E00E942E1F209711F4D2
:103D600060E004C0CF3FD10539F461E0812FDF91DD
:103D7000CF911F910C94671FE12FF0E0E051FF4FAE
:103D8000E491E330F9F048F4E130B9F0E230A1F524
:103D900084B5806284BDC8BD34C0E730E9F0E83046
:103DA00019F1E43049F580918000806280938000B1
:103DB000D0938B00C0938A0024C084B5806884BDF2
:103DC000C7BD1FC080918000806880938000D09321
:103DD0008900C093880015C08091B00080688093EE
:103DE000B000C093B3000DC08091B000806280939A
:103DF000B000C093B40005C0C038D1050CF0B5CFF9
:103E0000AFCFDF91CF911F910895833081F028F4D7
:103E1000813099F08230A1F008958730A9F0883080
:103E2000B9F08430D1F4809180008F7D03C08091FF
:103E300080008F7780938000089584B58F7702C0CB
:103E400084B58F7D84BD08958091B0008F7703C0C5
:103E50008091B0008F7D8093B0000895CF93DF9361
:103E600090E0FC01EC5FFE4F2491FC01E85EFE4F08
:103E70008491882349F190E0880F991FFC01E05C50
:103E8000FE4FA591B4918A5C9E4FFC01C591D491DF
:103E90009FB7611108C0F8948C91209582238C9370
:103EA000888182230AC0623051F4F8948C91322FB9
:103EB000309583238C938881822B888304C0F89467
:103EC0008C91822B8C939FBFDF91CF9108950F939C
:103ED0001F93CF93DF931F92CDB7DEB7282F30E02B
:103EE000F901E051FF4F8491F901EC5FFE4F14910D
:103EF000F901E85EFE4F04910023C9F0882321F008
:103F000069830E94051F6981E02FF0E0EE0FFF1F1B
:103F1000EA5CFE4FA591B4919FB7F8948C91611122
:103F200003C01095812301C0812B8C939FBF0F90FC
:103F3000DF91CF911F910F910895CF93DF93282F99
:103F400030E0F901E051FF4F8491F901EC5FFE4F41
:103F5000D491F901E85EFE4FC491CC2391F0811118
:103F60000E94051FEC2FF0E0EE0FFF1FE45DFE4FF7
:103F7000A591B4912C912D2381E090E021F480E073
:103F800002C080E090E0DF91CF910895FC01818D27
:103F9000228D90E0805C9F4F821B91098F7399273F
:103FA0000895FC01918D828D981731F0828DE80F74
:103FB000F11D858D90E008958FEF9FEF0895FC012E
:103FC000918D828D981761F0828DDF01A80FB11D50
:103FD0005D968C91928D9F5F9F73928F90E0089574
:103FE0008FEF9FEF089583E691E2892B49F080E0FF
:103FF00090E0892B29F00E94632181110C9400002C
:104000000895FC01848DDF01A80FB11DA35ABF4F95
:104010002C91848D90E001968F739927848FA689C7
:10402000B7892C93A089B1898C9180648C93938DEE
:10403000848D981306C00288F389E02D80818F7DDE
:1040400080830895CF93DF93EC01888D8823C9F096
:10405000EA89FB89808185FD05C0A889B9898C9191
:1040600086FD0FC00FB607FCF5CF808185FFF2CF2C
:10407000A889B9898C9185FFEDCFCE010E940120DE
:10408000E7CFDF91CF910895CF92DF92FF920F9308
:104090001F93CF93DF931F92CDB7DEB76C0181E002
:1040A000D60158968C9358975B969C915B975C963B
:1040B0008C915C97981307C05096ED91FC915197A5
:1040C000808185FD2EC0F601038D10E00F5F1F4F2C
:1040D0000F731127F02EF601848DF81211C00FB660
:1040E00007FCF9CFD6015096ED91FC915197808154
:1040F00085FFF1CFC60169830E9401206981EBCF62
:10410000838DE80FF11DE35AFF4F6083D6015B9664
:104110000C935B975296ED91FC915397808180624E
:104120000CC0D6015696ED91FC915797608350963E
:10413000ED91FC91519780818064808381E090E0D3
:104140000F90DF91CF911F910F91FF90DF90CF9053
:104150000895BF92CF92DF92EF92FF92CF93DF93B9
:10416000EC016A017B01B22EE889F98982E0808343
:10417000411581EE580761057105A1F060E079E015
:104180008DE390E0A70196010E94AC2521503109F2
:10419000410951095695479537952795211580E195
:1041A000380798F0E889F989108260E874E88EE1B0
:1041B00090E0A70196010E94AC25215031094109E8
:1041C00051095695479537952795EC85FD853083A0
:1041D000EE85FF852083188EEC89FD89B082EA89FF
:1041E000FB89808180618083EA89FB898081886086
:1041F0008083EA89FB89808180688083EA89FB89E2
:1042000080818F7D8083DF91CF91FF90EF90DF9051
:10421000CF90BF9008951F920F920FB60F92112466
:104220002F938F939F93EF93FF93E0919502F091DB
:1042300096028081E0919B02F0919C0282FD12C067
:10424000908180919E028F5F8F7320919F028217D1
:1042500051F0E0919E02F0E0EB57FD4F958F809377
:104260009E0201C08081FF91EF919F918F912F91CC
:104270000F900FBE0F901F9018951F920F920FB6C0
:104280000F9211242F933F934F935F936F937F93DC
:104290008F939F93AF93BF93EF93FF9385E892E043
:1042A0000E940120FF91EF91BF91AF919F918F915B
:1042B0007F916F915F914F913F912F910F900FBE22
:1042C0000F901F90189585E892E00E94C61F21E08C
:1042D000892B09F420E0822F089510928802109211
:1042E000870288EE93E0A0E0B0E08093890290938B
:1042F0008A02A0938B02B0938C0289E191E09093A3
:1043000086028093850285EC90E0909392028093E0
:10431000910284EC90E0909394028093930280EC5D
:1043200090E0909396028093950281EC90E09093B8
:1043300098028093970282EC90E090939A02809387
:10434000990286EC90E090939C0280939B021092DD
:104350009E0210929F021092A0021092A102089554
:10436000CF92DF92EF92FF920F931F93CF93DF9341
:104370007C016A01EB0100E010E00C151D0571F0F5
:104380006991D701ED91FC910190F081E02DC70179
:104390000995892B19F00F5F1F4FEFCFC801DF91EF
:1043A000CF911F910F91FF90EF90DF90CF900895E4
:1043B0004F925F926F927F92AF92BF92CF92DF92B5
:1043C000EF92FF920F931F93CF93DF93CDB7DEB79A
:1043D00029013A01621B730B840B950B29893A89D9
:1043E0004B895C892A193B094C095D09298B3A8B59
:1043F0004B8B5C8B9B01AC0169897A898B899C8989
:104400000E949025E418F50806091709A8019701EC
:104410000E94CE252A0D3B1D4C1D5D1DCA01B90110
:10442000DF91CF911F910F91FF90EF90DF90CF9090
:10443000BF90AF907F906F905F904F9008950895D8
:104440000E944E1E0E941F220E94F900C3EFDFE16E
:104450000E9454072097E1F30E94F31FF9CF0895BB
:104460009F939F778CD10F9000203AF49058A2EA46
:104470002AED3FE049E450E413D035C25058BB2741
:10448000AA270ED030C2F9D130F0FED120F031F49D
:104490009F3F11F41EF4B8C10EF4E095E7FBAEC1E6
:1044A000E92F43D280F3BA17620773078407950791
:1044B00018F071F49EF55BC20EF4E0950B2EBA2F46
:1044C000A02D0B01B90190010C01CA01A00111241A
:1044D000FF27591B99F0593F50F4503E68F11A16C6
:1044E000F040A22F232F342F4427585FF3CF469557
:1044F00037952795A795F0405395C9F77EF41F1679
:10450000BA0B620B730B840BBAF09150A1F0FF0F42
:10451000BB1F661F771F881FC2F70EC0BA0F621F2E
:10452000731F841F48F4879577956795B795F7951E
:104530009E3F08F0B3CF9395880F08F09927EE0FB0
:104540009795879508959F939F77EEE389379E0708
:1045500020F4E8E6F0E080D109C011D19058A2EA39
:104560002AED3FE049EC5FE39BDFBDD10F9007FCF4
:1045700090580895DF93DD27B92FBF7740E85FE3B8
:104580001616170648075B0710F4D92FFBD19F9327
:104590008F937F936F93A8D2ECE7F0E038D1A3D14B
:1045A0002F913F914F915F9100D2DD2349F09058B8
:1045B000A2EA2AED3FE049EC5FE3D0785D2770DFA7
:1045C000DF9191C1F7D008F481E0089565D1E395BA
:1045D0009BC10CD088C158D140F04FD130F021F4AC
:1045E0005F3F19F00BC15111C3C10EC19ED198F3A9
:1045F0009923C9F35523B1F3951B550BBB27AA2764
:1046000062177307840738F09F5F5F4F220F331FD5
:10461000441FAA1FA9F333D00E2E3AF0E0E830D0A1
:1046200091505040E695001CCAF729D0FE2F27D0A4
:10463000660F771F881FBB1F261737074807AB0772
:10464000B0E809F0BB0B802DBF01FF2793585F4FE7
:104650002AF09E3F510568F0D1C08AC15F3FECF35C
:10466000983EDCF3869577956795B795F7959F5FAC
:10467000C9F7880F911D9695879597F90895E1E000
:10468000660F771F881FBB1F621773078407BA075F
:1046900020F0621B730B840BBA0BEE1F88F7E095BA
:1046A000089504D06894B11163C1089546D188F08B
:1046B0009F5790F0B92F9927B751A0F0D1F0660F0E
:1046C000771F881F991F1AF0BA95C9F712C0B13029
:1046D00081F04DD1B1E008954AC1672F782F882726
:1046E000B85F39F0B93FCCF3869577956795B39568
:1046F000D9F73EF490958095709561957F4F8F4FD7
:104700009F4F0895E89409C097FB3EF490958095DB
:10471000709561957F4F8F4F9F4F9923A9F0F92F87
:1047200096E9BB279395F695879577956795B79505
:10473000F111F8CFFAF4BB0F11F460FF1BC06F5FEB
:104740007F4F8F4F9F4F16C0882311F096E911C0FD
:10475000772321F09EE8872F762F05C0662371F01E
:1047600096E8862F70E060E02AF09A95660F771F32
:10477000881FDAF7880F9695879597F90895DF9344
:10478000CF931F930F938B01EC01E9EAF0E03FD048
:10479000AAD09801AE018B01EC0160E070E080E8E6
:1047A0009FE36CDE63D19801AE010F911F91CF9111
:1047B000DF91FBC0990F0008550FAA0BE0E8FEEF50
:1047C00016161706E807F907C0F012161306E407D5
:1047D000F50798F0621B730B840B950B39F40A26CE
:1047E00061F0232B242B252B21F408950A2609F4AC
:1047F000A140A6958FEF811D811D089597F99F67B0
:1048000080E870E060E008959FEF80EC0895DF930A
:10481000CF931F930F93FF92EF92DF927B018C0156
:10482000689405C0DA2EEF01C0D0FE01E894A5918E
:104830002591359145915591AEF3EF0131DEFE01A1
:104840009701A801DA9479F7DF90EF90FF900F912C
:104850001F91CF91DF9108959F938F937F936F93D3
:10486000FF93EF939B01AC0194D0EF91FF91CFDFC9
:104870002F913F914F915F918CC000240A9416169E
:10488000170618060906089500240A94121613063E
:10489000140605060895B8CF50D0E8F3E894E0E098
:1048A000BB279F57F0F02AED3FE049EC06C0EE0F22
:1048B000BB0F661F771F881F28F0B23A6207730785
:1048C000840728F0B25A620B730B840BE3959A9518
:1048D00072F7803830F49A95BB0F661F771F881FD8
:1048E000D2F790480AC1092E0394000C11F48823D2
:1048F00052F0BB0F40F4BF2B11F460FF04C06F5F98
:104900007F4F8F4F9F4F0895EF93E0FF06C0A2EABD
:104910002AED3FE049EC5FEBC3DDE5DF0F90039448
:1049200001FC9058E1EDF0E097CF57FD9058440F0F
:10493000551F59F05F3F71F04795880F97FB991FFE
:1049400061F09F3F79F087950895121613061406BB
:10495000551FF2CF4695F1DF08C016161706180648
:10496000991FF1CF86957105610508940895E89423
:10497000BB2766277727CB0197F908951BDF08F43B
:104980008FEF08959B01AC0160E070E080E89FE349
:1049900020CE0BD0A8CF71DF28F076DF18F095235A
:1049A00009F02CCF31CF1124E3CFBFDFA0F3959FC7
:1049B000D1F3950F50E0551F629FF001729FBB2706
:1049C000F00DB11D639FAA27F00DB11DAA1F649FB2
:1049D0006627B00DA11D661F829F2227B00DA11D65
:1049E000621F739FB00DA11D621F839FA00D611DEB
:1049F000221F749F3327A00D611D231F849F600D0C
:104A0000211D822F762F6A2F11249F5750408AF044
:104A1000E1F088234AF0EE0FFF1FBB1F661F771FD0
:104A2000881F91505040A9F79E3F510570F0E6CE87
:104A30009FCF5F3FECF3983EDCF3869577956795C3
:104A4000B795F795E7959F5FC1F7FE2B880F911DEE
:104A50009695879597F908959F931EDF0F9007FC11
:104A6000EE5F52CF11F40EF4CFCE45C066DFD0F327
:104A70009923D9F3CEF39F57550B87FF4AD00024D3
:104A8000A0E640EA900180585695979528F4805CFE
:104A9000660F771F881F20F026173707480730F466
:104AA000621B730B840B202931294A2BA69517947E
:104AB0000794202531254A2758F7660F771F881F4E
:104AC00020F026173707480730F4620B730B840B6E
:104AD000200D311D411DA09581F7B901842F9158FA
:104AE000880F9695879508959B01AC0152CF62DEA1
:104AF000880B990B08959F3F31F0915020F48795D2
:104B000077956795B795880F911D9695879597F935
:104B1000089591505040660F771F881FD2F708956F
:104B2000DB018F939F930E94ED25BF91AF91A29FD0
:104B3000800D911DA39F900DB29F900D112408959B
:104B4000991B79E004C0991F961708F0961B881FDF
:104B50007A95C9F780950895A1E21A2EAA1BBB1B6E
:104B6000FD010DC0AA1FBB1FEE1FFF1FA217B30739
:104B7000E407F50720F0A21BB30BE40BF50B661F4F
:104B8000771F881F991F1A9469F760957095809513
:104B900090959B01AC01BD01CF010895052E97FBB7
:104BA0001EF400940E94E52557FD07D00E94AC2515
:104BB00007FC03D04EF40C94E525509540953095B4
:104BC00021953F4F4F4F5F4F089590958095709579
:104BD00061957F4F8F4F9F4F08950E94FE25A59F9F
:104BE000900DB49F900DA49F800D911D11240895E8
:104BF000EE0FFF1F0590F491E02D0994A29FB001E4
:104C0000B39FC001A39F700D811D1124911DB29F00
:104C1000700D811D1124911D0895F999FECF92BD4B
:104C200081BDF89A992780B50895262FF999FECF6E
:104C30001FBA92BD81BD20BD0FB6F894FA9AF99AB9
:0A4C40000FBE01960895F894FFCF0F
:104C4A000100000001000000000E1CE11BB61BBEA3
:104C5A001BD11BE01B000000004420B021C61FDF4F
:064C6A001FD11F222000F3
:00000001FF
